:0400000002001132B7
:03000B000200747C
:0A006A00E4F510F511F51202000E86
:03000E000200A14C
:20007400C0E0C0F0C0D00510E4B510020511C374D0951074878511F063F08095F05007B228
:2000940001300102B200D0D0D0F0D0E0327F0075B22A8FB1758E808F898F8A8F8CD28CD215
:2000B400A9D2AF751200D2B39000FAC0071201E9D007C2B3E51224FB40FAE51275F003A40A
:2000D4009000D8730200E70200F40201010201B70201D7C2B1D2B5D2B320B4D8051280D424
:2000F40030B40375120020B2CB051280C7D2B37DBE7E001DBDFF011EED4E70F7C2B3A2B2E2
:20011400B3E433FF7DBE7E001DBDFF011EED4E70F7FDFED2B37BBE7C001BBBFF011CEB4C51
:2001340070F720B2027F00C2B37BBE7C001BBBFF011CEB4C70F70DBD00010E8D038E04C379
:20015400EB9407EC6480948040C9D2B37DBE7E001DBDFF011EED4E70F730B2027F00C2B368
:200174007DBE7E001DBDFF011EED4E70F7D2B37DBE7E001DBDFF011EED4E70F720B2027FED
:2001940000C2B37DBE7E001DBDFF011EED4E70F7EF24FF92B3EF600505120200C87512046C
:2001B4000200C8EF6006A20192B38004A20092B3D2B19001F4C0071201E9D007C2B105128D
:2001D4000200C8C2B5A20092B320B4030200C87512000200C8AE82AF83C3EE9401EF9400C6
:2001F4005001227C667D02EC24FFFAED34FFFB8A048B05EA4B70F01EBEFF011FEE4F70E3B5
:0102140022C7
:06004000E4787FF6D8FD14
:20001E007900E94400601B7A00900219780175A000E493F2A308B8000205A0D9F4DAF2756D
:02003E00A0FF21
:200046007800E84400600A790175A000E4F309D8FC7800E84400600C7900900001E4F0A3B8
:04006600D8FCD9FAEF
:0D001100758120120215E582600302000EC9
:0402150075820022CC
:00000001FF
